:1000000048EF2AF00000000000EF00F000000000C0
:0A0010000000000000000000F3D71C
:10001C000B840BAE19EF00F0010E036E026A016A3D
:0A002C00006A0A360232FF0E1200CD
:0E003600ACB202D00000FCD72AC1ADFF120010
:0C00440072B201D0FDD72AC173FF120078
:080050000AAE029E000E120030
:0E005800026A016A006A086A036A000E12005A
:100066000B820BAE3DEF00F0036802680168006882
:080076000A360232FF0E1200EF
:10007E00C7B409D01F0EC514016E0150000A03E16A
:0A008E00010E006E01D0006A12009E
:10009800F250026EF29E0500FF6A0150FE6E00509B
:0800A800FD6E02BEF28E120093
:1000B0000CB09AEF00F00CA240EF01F00E6A000EB7
:1000C0000264B1EF00F0F00E0214D8A47CEF00F04F
:1000D000023A01380F0B02260138F00B016E00388E
:1000E0000F0B01260038F00B006E08380F0B0026AE
:1000F0000838F00B086E0E84D89002BE95EF00F021
:1001000008360036013602360E2A02BE95EF00F0A0
:1001100008360036013602360E2A02BE95EF00F090
:1001200008360036013602360E2A0E50036436EFCA
:1001300001F0035E0BBC08AE3BEF01F0D880800EEF
:1001400008640030000E002201220222D8A03BEFFA
:1001500001F0023201320032034A40EF01F03BEF7E
:1001600001F001C002F000C001F008C000F0086A10
:10017000000E0E860264E8EF00F0F00E0214D8A420
:10018000D0EF00F0023A01380F0B02260138F00BD5
:10019000016E00380F0B01260038F00B006E0E8444
:1001A000D89002BE95EF00F00036013602360E2AD6
:1001B00002BE95EF00F00036013602360E2A02BE6E
:1001C00095EF00F00036013602360E2A95EF00F06A
:1001D00001C002F000C001F0006A000E0E960E8809
:1001E000026415EF01F0F00E0214D8A400EF01F044
:1001F000023A01380F0B02260138F00B016E0E8413
:10020000D89002BE95EF00F0013602360E2A02BEEB
:1002100095EF00F0013602360E2A02BE95EF00F08F
:10022000013602360E2A95EF00F001C002F0016A95
:10023000000E0E86026445EF01F0F00E0214D8A401
:1002400024EF01F0023A0E84D89002BE95EF00F040
:1002500002360E2A02BE95EF00F002360E2A02BECA
:1002600095EF00F002360E2A95EF00F0010E0C6EAD
:10027000D5DE48EF01F0020E0C6EEADE48EF01F029
:10028000040E0C6EF0DE48EF01F0080E0C6EE4DE9A
:0202900012005A
:100292003AC024F13BC025F13CC026F13DC027F114
:1002A200C582C5A21FD03A503B103C103D1019E048
:1002B200010124512511261127110CE17DC0E1FF16
:1002C2007EC0E2FF060EE66E7BC000F07CC001F04D
:1002D200E2DE08D0010E0101245F000E255B265BE1
:0602E200275BDFD71200CC
:0402E800C5841200B7
:1002EC003AC026F13BC027F13CC028F13DC029F1B2
:1002FC009E96C5869EB61FD03A503B103C103D10C2
:10030C0019E0010126512711281129110CE17DC09A
:10031C00E1FF7EC0E2FF030EE66E7BC000F07CC006
:10032C0001F0B4DE08D0010E0101265F000E275B40
:10033C00285B295BDFD70101C9CF25F12451000AC5
:10034C0002E1C58A01D0C59A9E96C5883AC026F1AD
:10035C003BC027F13CC028F13DC029F19EB61FD00F
:10036C003A503B103C103D1019E001012651271169
:10037C00281129110CE17DC0E1FF7EC0E2FF030EC4
:10038C00E66E7BC000F07CC001F080DE08D0010E70
:10039C000101265F000E275B285B295BDFD725C197
:0403AC0000F012004B
:1003B0009E9624C1C9FF3AC025F13BC026F13CC03E
:1003C00027F13DC028F1C7A421D03A503B103C1082
:1003D0003D101BE0010125512611271128110EE1C6
:1003E0007DC0E1FF7EC0E2FF040EE66E7BC000F040
:1003F0007CC001F051DE010E006E3AD0010E010109
:10040000255F000E265B275B285BDDD73AC025F110
:100410003BC026F13CC027F13DC028F19EB621D05B
:100420003A503B103C103D101BE0010125512611B4
:10043000271128110EE17DC0E1FF7EC0E2FF040E0E
:10044000E66E7BC000F07CC001F026DE010E006E7F
:100450000FD0010E0101255F000E265B275B285B94
:10046000DDD7C5BC02D0006A03D0C584020E006E81
:02047000120078
:10047200086A080E0C6E003408360450085ED8B0C4
:0E04820002D00826D89000360C2EF5D71200B6
:100490003AC026F13BC027F13CC028F13DC029F10C
:1004A0000101246B256B2551120802E124518E08AD
:1004B00008E3E5DD005201E004D00101244B252BC7
:1004C000F2D70101120E255D02E18F0E245D03E3D8
:1004D0007B0E006E24D0C580C5A020D03A503B10C2
:1004E0003C103D101AE026512711281129110EE168
:1004F0007DC0E1FF7EC0E2FF050EE66E7BC000F02E
:100500007CC001F0C9DD010E006E09D0010E0101B1
:10051000265F000E275B285B295BDED7006A12008E
:10052000025006180E6E086A096A0B6A03500764C7
:1005300083EF03F006500A6E068E028E03500B6E98
:100540000750036E000E0B64D3EF02F00B50075EF2
:10055000D8B474EF03F0070E076442EF03F0075EB0
:1005600000C008F001C000F002C001F0026A074EAE
:1005700074EF03F0076417EF03F0075E00C008F0A4
:1005800001C000F0016A074E74EF03F00764F5EF55
:1005900002F0075E00C008F0006A074E74EF03F037
:1005A0000764DCEF02F00AC002F005C001F004C0ED
:1005B00000F0086AA0EF04F0030E0764E7EF02F012
:1005C000075E08380F0B086E074E74EF03F0D890E3
:1005D0000832074E74EF03F0D8900832074E74EFDC
:1005E00003F0D890083274EF03F0030E076406EFAF
:1005F00003F0075E08380F0B086E0038F00B082672
:1006000000380F0B006E074E74EF03F0D8900032E5
:100610000832074E74EF03F0D89000320832074ECC
:1006200074EF03F0D8900032083274EF03F0030E39
:1006300007642EEF03F0075E08380F0B086E0038D2
:10064000F00B082600380F0B006E0138F00B002667
:1006500001380F0B016E074E74EF03F0D890013292
:1006600000320832074E74EF03F0D89001320032A6
:100670000832074E74EF03F0D8900132003208328E
:1006800074EF03F0030E07645FEF03F0075E0838B2
:100690000F0B086E0038F00B082600380F0B006EA9
:1006A0000138F00B002601380F0B016E0238F00BF9
:1006B000012602380F0B026E074E74EF03F0D8903C
:1006C0000232013200320832074E74EF03F0D89044
:1006D0000232013200320832074E74EF03F0D89034
:1006E0000232013200320832096A000E0EAE68EFA3
:1006F00004F0081E001E011E021E082A002201220C
:10070000022268EF04F00750D8A489EF03F0A0EFAD
:1007100004F0096A02C00AF0028E068E0750035CDC
:10072000076ED8B45BEF04F0070E076429EF04F0FE
:10073000075E0450096E0550046E0650056E066A89
:10074000074E5BEF04F0070E0764FEEF03F0075E51
:100750000450096E0550046E056A074E5BEF04F005
:10076000070E0764DCEF03F0075E0450096E046AAD
:10077000074E5BEF04F0070E0764C3EF03F00AC0F7
:1007800002F0A0EF04F0030E0764CEEF03F0075E63
:1007900009380F0B096E074E5BEF04F0D890093251
:1007A000074E5BEF04F0D8900932074E5BEF04F080
:1007B000D89009325BEF04F0030E0764EDEF03F00D
:1007C000075E09380F0B096E0438F00B0926043850
:1007D0000F0B046E074E5BEF04F0D8900432093221
:1007E000074E5BEF04F0D89004320932074E5BEFFE
:1007F00004F0D890043209325BEF04F0030E076472
:1008000015EF04F0075E09380F0B096E0438F00B82
:10081000092604380F0B046E0538F00B0426053842
:100820000F0B056E074E5BEF04F0D89005320432D3
:100830000932074E5BEF04F0D890053204320932DA
:10084000074E5BEF04F0D8900532043209325BEFBB
:1008500004F0030E076446EF04F0075E09380F0B3F
:10086000096E0438F00B092604380F0B046E0538A6
:10087000F00B042605380F0B056E0638F00B052625
:1008800006380F0B066E074E5BEF04F0D890063269
:10089000053204320932074E5BEF04F0D89006327D
:1008A000053204320932074E5BEF04F0D89006326D
:1008B000053204320932086A000E0EAE68EF04F009
:1008C000091E041E051E061E092A042205220622F0
:1008D0000950082604500022055001220650022229
:1008E0000EBE7FEF04F0D8A08EEF04F0023201328A
:1008F00000320832033E8EEF04F09AEF04F0D8B0D5
:1009000094EF04F0000E081E001E011E021E082AAD
:100910000022012202220A7E94EF04F0010E0C6EE6
:1009200058EC00F0A2EF04F0020E0C6E58EC00F050
:10093000A2EF04F0040E0C6E33EC00F0A2EF04F012
:06094000000E0C6E120017
:10094600086A096A000E0762036428EF05F0025080
:1009560006180A6E075003267E0ED8A0B9EF04F0DB
:10096600035ED8B02DEF05F0BDEF04F0035ED8A00E
:1009760032EF05F0028E068E02C00EF001C00BF0BB
:1009860000C00DF000500402F4CF0CF00150050237
:10099600F4CF00F0F3CF08F00402F3500C26F45025
:1009A6000822000E00220D500502F3500C26F450CA
:1009B6000822000E002202500402F3500826F450CA
:1009C600002202500502016A000E0122F3500026A1
:1009D600F45001220D500602F3500826F45000226E
:1009E600026A000E012202220B500602F350002674
:1009F600F4500122000E02220E500602F350012688
:100A0600F450022202BE10EF05F008360036013619
:100A160002360306D8B432EF05F023EF05F0D8808E
:100A2600800E08640030000E002201220222D8A0A7
:100A360023EF05F0023201320032034A2DEF05F0B2
:100A46000AAE029E000E35EF05F0010E2CEC00F00A
:100A560035EF05F0020E33EC00F035EF05F0040E2D
:060A66000EEC00F012008E
:080A6C000B6A0B86FF0E12005D
:100A74000134083609360450085E0550D8A0053CF8
:100A8400095E003601360F0E0C6E01340836093645
:100A9400045000A006D0085E0550D8A0053C095EAD
:100AA40005D008260550D8B0053C09260036013685
:100AB4000C2EEBD700B006D0045008260550D8B051
:080AC400053C092600001200A8
:100ACC000D6A086A0050D8B4000C04180A6E0ABEED
:100ADC000D1E0B6A04AE02D0041E042A00AE02D016
:100AEC00001E002A005004100A6E0ABE1FD00450CB
:100AFC00085E003600340836045008260036060E10
:100B0C000C6E00340836045000B0085E00A00826B5
:100B1C0000360C2EF6D700A008260BB015D00DAE63
:100B2C00000C001E002A081E082A000C04AE09D076
:100B3C0000BE04D00050086E006AF1D7006A002A8B
:100B4C00000C001E0B2AD3D7082A0450085CD8A42A
:0E0B5C00E6D7086A002A00AEE2D7FF0C1200AE
:100B6A000B800BAEC1EF05F0026A0AAEFF0E026EF1
:0C0B7A00016E006E0A360232FF0E1200FF
:060B8600067ECBDC12002C
:100B8C0081DCEC0E0101246F0DDC1FC124F10ADCA9
:100B9C0049EC01F0ED0E0101246F04DC0101246B22
:100BAC0076EC01F000C020F174EC01F020C100F0F3
:020BBC00120025
:100BBE0003500718D8A4F3EF05F002500618D8A476
:100BCE00F3EF05F001500518D8A4F3EF05F000502F
:0E0BDE000418D8B4D8841200D8941200120063
:100BEC000450000A08E10550000A05E1FF0E006EF2
:100BFC007F0E016E57D00D6A096A086A0150001009
:100C0C00D8B4000C015005180A6E0ABE0D1E0B6AF2
:100C1C0005AE05D0041E051E042AD8B4052A01AE63
:100C2C0005D0001E011E002AD8B4012A015005105F
:100C3C000A6E0ABE10D018DF0BB020D00DAE000C1F
:100C4C00001E011E002AD8B4012A081E091E082AFB
:100C5C00D8B4092A000C05AE0DD001BE07D0015046
:100C6C00096E0050086E016A006AE8D7016A006AD2
:100C7C00002A000C011E001E0B2ADDD7082AD8B44E
:100C8C00092A0450085CD8A4D9D70550095CD8A40B
:100C9C00D5D7096A086A002AD8B4012A01AECED782
:060CAC000000FF0C120025
:100CB200800E01011F19006E800E000A005CD8B080
:100CC20064D11F510008016E01C01FF1800E01188E
:100CD200006E800E6E0A005CD8A0BAD0640E046E5C
:100CE2001FC100F0F2DE120E0024056E000E00BEDF
:100CF200FF0E066E000E062205C000F006C001F0CF
:100D0200000E06BEFF0E026E036E00360090013624
:100D12000236033600360090013602360336160ECE
:100D22000024F66E560E0120F76E000E0220F86EB9
:100D32000900F5CF20F10900F5CF21F10900F5CF27
:100D420022F10900F5CF23F1640E046E1FC100F0F9
:100D5200BCDE08C000F00A0E046EB7DE090E0024E5
:100D6200056E000E00BEFF0E066E000E062205C0C6
:100D720000F006C001F0000E06BEFF0E026E036E0A
:100D820000360090013602360336003600900136F6
:100D920002360336160E0024F66E560E0120F76E4A
:100DA200000E0220F86E0900F5CF00F00900F5CF21
:100DB20001F00900F5CF02F00900F5CF03F020C1E0
:100DC20004F021C105F022C106F023C107F0BADD0B
:100DD20000C020F101C021F102C022F103C023F1C1
:100DE2000A0E046E1FC100F070DE08C000F000C0E1
:100DF20001F0000E00BEFF0E026E036E046E01369D
:100E0200019002360336043601360190023603366B
:100E12000436160E0124F66E560E0220F76E000EF0
:100E22000320F86E0900F5CF00F00900F5CF01F0BC
:100E32000900F5CF02F00900F5CF03F020C104F05C
:100E420021C105F022C106F023C107F07BDDFCD1F0
:100E5200800E0A0A006E800E1F19005C6EE20A0EF6
:100E6200046E1FC100F031DE090E0024056E000E73
:100E720000BEFF0E066E000E062205C000F006C080
:100E820001F0000E06BEFF0E026E036E00360090E9
:100E9200013602360336003600900136023603363A
:100EA200160E0024F66E560E0120F76E000E02207A
:100EB200F86E0900F5CF20F10900F5CF21F1090004
:100EC200F5CF22F10900F5CF23F10A0E046E1FC1FE
:100ED20000F0FBDD08C000F000C001F0000E00BE13
:100EE200FF0E026E036E046E013601900236033667
:100EF200043601360190023603360436160E0124FA
:100F0200F66E560E0220F76E000E0320F86E0900F0
:100F1200F5CF00F00900F5CF01F00900F5CF02F09E
:100F22000900F5CF03F020C104F021C105F022C170
:100F320006F023C107F006DD87D11FC100F0000EC5
:100F42001FBFFF0E016E026E036E00360090013667
:100F52000236033600360090013602360336160E8C
:100F62000024F66E560E0120F76E000E0220F86E77
:100F72000900F5CF00F00900F5CF01F00900F5CF27
:100F820002F00900F5CF03F05FD1800E1F19006E49
:100F9200800E6E0A005CD8A0BAD0640E046E1FC127
:100FA20000F093DD120E0024056E000E00BEFF0E4F
:100FB200066E000E062205C000F006C001F0000E0B
:100FC20006BEFF0E026E036E003600900136023638
:100FD2000336003600900136023603364A0E0024EC
:100FE200F66E560E0120F76E000E0220F86E090012
:100FF200F5CF20F10900F5CF21F10900F5CF22F15B
:101002000900F5CF23F1640E046E1FC100F05DDD0F
:1010120008C000F00A0E046E58DD090E0024056EA9
:10102200000E00BEFF0E066E000E062205C000F086
:1010320006C001F0000E06BEFF0E026E036E003601
:101042000090013602360336003600900136023631
:1010520003364A0E0024F66E560E0120F76E000E7D
:101062000220F86E0900F5CF00F00900F5CF01F07B
:101072000900F5CF02F00900F5CF03F020C104F01A
:1010820021C105F022C106F023C107F05BDC00C0DC
:1010920020F101C021F102C022F103C023F10A0EA6
:1010A200046E1FC100F011DD08C000F000C001F0A5
:1010B200000E00BEFF0E026E036E046E013601903A
:1010C2000236033604360136019002360336043600
:1010D2004A0E0124F66E560E0220F76E000E032011
:1010E200F86E0900F5CF00F00900F5CF01F0090014
:1010F200F5CF02F00900F5CF03F020C104F021C1C1
:1011020005F022C106F023C107F01CDC9DD0800E41
:101112000A0A006E800E1F19005C6FE20A0E046E4E
:101122001FC100F0D2DC090E0024056E000E00BEC5
:10113200FF0E066E000E062205C000F006C001F08A
:10114200000E06BEFF0E026E036E003600900136E0
:1011520002360336003600900136023603364A0E56
:101162000024F66E560E0120F76E000E0220F86E75
:101172000900F5CF20F10900F5CF21F10900F5CFE3
:1011820022F10900F5CF23F10A0E046E1FC100F00F
:101192009CDC08C000F000C001F0000E00BEFF0E93
:1011A200026E036E046E0136019002360336043677
:1011B200013601900236033604364A0E0124F66ED9
:1011C200560E0220F76E000E0320F86E0900F5CFCE
:1011D20000F00900F5CF01F00900F5CF02F0090097
:1011E200F5CF03F020C104F021C105F022C106F0C1
:1011F20023C107F0A3EC04F027D01FC100F0000EBA
:101202001FBFFF0E016E026E036E003600900136A4
:1012120002360336003600900136023603364A0E95
:101222000024F66E560E0120F76E000E0220F86EB4
:101232000900F5CF00F00900F5CF01F00900F5CF64
:0A12420002F00900F5CF03F01200DE
:10124C0048EC02F0EC0E0101246FD8EC01F01FC148
:10125C0024F1D8EC01F020C124F1D8EC01F074ECAD
:04126C0001F012007B
:101270000050086E0150006E0250016E0350026E65
:10128000036A0B6A0C6A9E0E036E0A6A020E0C6EEB
:0612900058EC00F0120012
:101296000450000A12E10550000A0FE10650000A48
:1012A6000CE10750000A09E1FF0E006EFF0E016E09
:1012B6007F0E026EFF0E036EA8D0086A096A0750F9
:1012C600D8B4F6EF09F00350D8B4FBEF09F002509A
:1012D60006180A6E028E068E0E6A02C008F001C05B
:1012E6000CF000C00DF004500D5E0550D8A0053C72
:1012F6000C5E0650D8A0063C085E086A0C6A0D6AA9
:10130600D8A08DEF09F0D8900232013200320832AF
:10131600010E0E6E0750035ED8A09AEF09F07E0EFE
:101326000E240326D8B000EF0AF0A0EF09F07E0ED7
:101336000E240326D8A005EF0AF0180E0B6E0D3604
:101346000C3608360036013602360E360450005E7C
:101356000550D8A0053C015E0650D8A0063C025EAA
:1013660006340E120EA0BBEF09F00D80C6EF09F091
:10137600045000260550D8B0053C01260650D8B0CA
:10138600062802260D900B2EA2EF09F0ECEF09F0CD
:10139600D8900036013602360E360450005E0550EF
:1013A600D8A0053C015E0650D8A0063C025E063475
:1013B6000E10010B0D26D8B00C2AD8B4082AD8A4D2
:1013C600ECEF09F008320C320D32032AD8B400EFE4
:1013D6000AF00AAE089E0850026E0C50016E0D50BF
:1013E600006E08EF0AF0010E36EC05F008EF0AF081
:1013F600020E2CEC00F008EF0AF0040E33EC00F0BD
:0C14060008EF0AF0080E0EEC00F01200D7
:101412000B6A0C6A0A6A086A0350D8B491EF0AF0A0
:10142200028E9E0E035E03BE1CEF0AF0D8B41CEFC0
:101432000AF081EF0AF0036C080E035CD8A04EEFAD
:101442000AF0036E083600C008F001C000F002C0C6
:1014520001F0026A080E035CD8A04EEF0AF0036E98
:10146200083600C008F001C000F0016A080E035CF3
:10147200D8A04EEF0AF0036E083600C008F0006AEA
:10148200080E035CD8A04EEF0AF0036E0836086A15
:101492000350D8A4D8905AEF0AF00350D8B45AEFA8
:1014A2000AF0D8900232013200320832032E52EF93
:1014B2000AF00BBC08A06BEF0AF0D8A06BEF0AF0A1
:1014C200082AD8B4002AD8B4012AD8B4022A02BE03
:1014D20095EF0AF00AAE91EF0AF0021E011E001EFD
:1014E200081E082AD8B4002AD8B4012AD8B4022A7D
:1014F20091EF0AF0026A016A006A086A91EF0AF043
:101502000B800BAE9BEF0AF0026A0AAE9BEF0AF069
:10151200026E016E006E086E0A3602329BEF0AF00E
:10152200000E0C6A9CEF0AF0010E0C6EB5EC05F091
:101532009CEF0AF0FF0E0250036E0150026E005043
:08154200016E0850006E12005A
:10154A00220E0C6E086A096A0A6A0B6A0C06D8B47B
:10155A001FD0D8900B320A320932083203320232D3
:10156A0001320032D8A0F2D70C06D8B409D0045000
:10157A0008260550092206500A2207500B22EAD7EC
:10158A00045008260550092206500A2207500B2249
:02159A0012003D
:10159C006E0E01011F5DD8A0CAD0640E046E1FC16F
:1015AC0000F039EC02F0120E0024056E066A000EF3
:1015BC00062205C000F006C001F0000E06BEFF0EAC
:1015CC00026E036E0036009001360236033600368A
:1015DC000090013602360336160E0024F66E560EB7
:1015EC000120F76E000E0220F86E0900F5CF00F016
:1015FC000900F5CF01F00900F5CF02F00900F5CF95
:10160C0003F0000E046E000E056E000E066E7E0ECC
:10161C00076EA3EC04F000C020F101C021F102C060
:10162C0022F103C023F1640E046E1FC100F039ECEB
:10163C0002F008C000F00A0E046E39EC02F0090E3C
:10164C000024056E066A000E062205C000F006C0D6
:10165C0001F0000E06BEFF0E026E036E0036009007
:10166C000136023603360036009001360236033658
:10167C00160E0024F66E560E0120F76E000E022098
:10168C00F86E0900F5CF00F00900F5CF01F0090064
:10169C00F5CF02F00900F5CF03F020C104F021C111
:1016AC0005F022C106F023C107F0A3EC04F000C042
:1016BC0020F101C021F102C022F103C023F10A0E76
:1016CC00046E1FC100F039EC02F008C000F000C03D
:1016DC0001F0000E026E036E046E013601900236AC
:1016EC000336043601360190023603360436160EE4
:1016FC000124F66E560E0220F76E000E0320F86ED3
:10170C000900F5CF00F00900F5CF01F00900F5CF85
:10171C0002F00900F5CF03F020C104F021C105F05F
:10172C0022C106F023C107F0A3EC04F0B1D01F5185
:10173C000A08D8B07ED00A0E046E1FC100F039EC36
:10174C0002F0090E0024056E066A000E062205C082
:10175C0000F006C001F0000E06BEFF0E026E036E16
:10176C000036009001360236033600360090013602
:10177C0002360336160E0024F66E560E0120F76E56
:10178C00000E0220F86E0900F5CF00F00900F5CF2D
:10179C0001F00900F5CF02F00900F5CF03F0000EBF
:1017AC00046E000E056E000E066E7E0E076EA3EC28
:1017BC0004F000C020F101C021F102C022F103C0ED
:1017CC0023F10A0E046E1FC100F039EC02F008C0C0
:1017DC0000F000C001F0000E026E036E046E0136C4
:1017EC000190023603360436013601900236033678
:1017FC000436160E0124F66E560E0220F76E000EFD
:10180C000320F86E0900F5CF00F00900F5CF01F0C8
:10181C000900F5CF02F00900F5CF03F020C104F068
:10182C0021C105F022C106F023C107F0A3EC04F09E
:10183C002FD01FC100F0000E016E026E036E003639
:10184C00009001360236033600360090013602361F
:10185C000336160E0024F66E560E0120F76E000E9F
:10186C000220F86E0900F5CF00F00900F5CF01F069
:10187C000900F5CF02F00900F5CF03F0000E046E5D
:10188C00000E056E000E066E7E0E076EA3EC04F0C5
:02189C00120038
:10189E000B6A0C6A086A0350D8B4D3EF0CF002C07E
:1018AE000AF0028E9E0E035E03AEC3EF0CF0036CC5
:1018BE00080E035CD8A090EF0CF0036E083600C043
:1018CE0008F001C000F002C001F0026A080E035CCD
:1018DE00D8A090EF0CF0036E083600C008F001C0DF
:1018EE0000F0016A080E035CD8A090EF0CF0036EB6
:1018FE00083600C008F0006A080E035CD8A090EF0E
:10190E000CF0036E0836086A0350D8A4D8909CEFEA
:10191E000CF00350D8B49CEF0CF0D8900232013288
:10192E0000320832032E94EF0CF00BBC08A0ADEF82
:10193E000CF0D8A0ADEF0CF0082AD8B4002AD8B419
:10194E00012AD8B4022A02BED7EF0CF00AAED3EFAA
:10195E000CF0021E011E001E081E082AD8B4002A12
:10196E00D8B4012AD8B4022AD3EF0CF0026A016A65
:10197E00006A086AD3EF0CF00B800BAEDEEF0CF0B2
:10198E00026A0AAEDEEF0CF0026E016E006E086E99
:10199E000A360232DEEF0CF00C6A000EDFEF0CF0AE
:1019AE00010E0C6E000EB5EC05F0DFEF0CF0FF0E25
:1019BE000250036E0150026E0050016E0850006E10
:0219CE00120005
:1019D00001011F51390806E3300E1F5D03E3010EBC
:0819E000006E01D0006A120044
:1019E8000A6A0350D8A40A800750D8A40A820A5069
:1019F800D8B457EF0DF0030AD8B410EF0DF00AB0C1
:101A08000BEF0DF006AE55EF0DF053EF0DF002AEF3
:101A180053EF0DF055EF0DF00250800B0A6E029E49
:101A28000650800B069E0A18D8B421EF0DF00A5014
:101A3800D8B453EF0DF055EF0DF00750035CD8B450
:101A48002BEF0DF0D8A047EF0DF04DEF0DF006503D
:101A5800025CD8B435EF0DF0D8A047EF0DF04DEF8C
:101A68000DF00550015CD8B43FEF0DF0D8A047EF5A
:101A78000DF04DEF0DF00450005CD8B457EF0DF0A9
:101A8800D8B04DEF0DF00A52D8B455EF0DF053EF22
:101A98000DF00A52D8B453EF0DF055EF0DF0D88081
:0E1AA8001200D8901200D880D88412001200CC
:101AB6000B6A0A6A096A086A0E6A03340836045011
:101AC600085E0550D8A0053C095E0650D8A0063C25
:101AD6000A5E0750D8A0073C0B5EE86AD8A0010E44
:101AE6000E5E0336070E0C6E0334083609360A36C8
:101AF6000B360E36045003A012D0085E0550D8A04F
:101B0600053C095E0650D8A0063C0A5E0750D8A0E0
:101B1600073C0B5EE86AD8A0010E0E5E11D00826BF
:101B26000550D8B0053C09260650D8B0063C0A2612
:101B36000750D8B0073C0B26E86AD8B0010E0E262F
:101B460003360C2ED1D70234083609360A360B3640
:101B56000E36045003A012D0085E0550D8A0053CEE
:101B6600095E0650D8A0063C0A5E0750D8A0073C7E
:101B76000B5EE86AD8A0010E0E5E11D0082605504D
:101B8600D8B0053C09260650D8B0063C0A260750B0
:101B9600D8B0073C0B26E86AD8B0010E0E260236EE
:101BA600070E0C6E0234083609360A360B360E3628
:101BB600045002A012D0085E0550D8A0053C095E6C
:101BC6000650D8A0063C0A5E0750D8A0073C0B5E1C
:101BD600E86AD8A0010E0E5E11D008260550D8B0CE
:101BE600053C09260650D8B0063C0A260750D8B050
:101BF600073C0B26E86AD8B0010E0E2602360C2EDC
:101C0600D1D70134083609360A360B360E3604505B
:101C160002A012D0085E0550D8A0053C095E065009
:101C2600D8A0063C0A5E0750D8A0073C0B5EE86ABF
:101C3600D8A0010E0E5E11D008260550D8B0053C7E
:101C460009260650D8B0063C0A260750D8B0073CED
:101C56000B26E86AD8B0010E0E260136070E0C6E6A
:101C66000134083609360A360B360E36045001A002
:101C760012D0085E0550D8A0053C095E0650D8A0D3
:101C8600063C0A5E0750D8A0073C0B5EE86AD8A05F
:101C9600010E0E5E11D008260550D8B0053C092667
:101CA6000650D8B0063C0A260750D8B0073C0B268B
:101CB600E86AD8B0010E0E2601360C2ED1D70034B4
:101CC600083609360A360B360E36045001A012D0F5
:101CD600085E0550D8A0053C095E0650D8A0063C13
:101CE6000A5E0750D8A0073C0B5EE86AD8A0010E32
:101CF6000E5E11D008260550D8B0053C09260650C0
:101D0600D8B0063C0A260750D8B0073C0B26E86A2E
:101D1600D8B0010E0E260036070E0C6E00340836BB
:101D260009360A360B360E36045000A012D0085E6D
:101D36000550D8A0053C095E0650D8A0063C0A5EB0
:101D46000750D8A0073C0B5EE86AD8A0010E0E5ECD
:101D560011D008260550D8B0053C09260650D8B043
:101D6600063C0A260750D8B0073C0B26E86AD8B0CE
:101D7600010E0E2600360C2ED1D700B00ED0045020
:101D860008260550D8B0053C09260650D8B0063CB2
:0C1D96000A260750D8B0073C0B261200AC
:101DA2000B6A0A6A096A00500402F4CF09F0F3CF01
:101DB20008F001500502F4CF0BF0F3CF0AF0005007
:101DC2000502F3500926F4500A22E86A0B22015058
:101DD2000402F3500926F4500A22E86A0B2208C0D2
:101DE20000F009C001F00AC002F00BC003F01200BB
:101DF2000101176B186B0B6B0C6BF9C000F0FAC08A
:101E020001F0FBC002F0010E0001F927000EFA23D7
:101E1200FB2300C0F6FF01C0F7FF02C0F8FF090074
:101E2200F5CF00F000C008F10052D8B476EF1FF0F1
:101E320001010851250A0DE0F7C0E1FFF8C0E2FFF9
:101E420008C1E6FF0001F74BF82B0101174B182BD5
:101E5200D4D7096B0A6B0B6B0C6B2DD001010B876E
:101E6200010E0001F927000EFA23FB2361D00101C4
:101E72000B81010E0001F927000EFA23FB2358D033
:101E820001010B83010E0001F927000EFA23FB2347
:101E92004FD001010C87010E0001F927000EFA2331
:101EA200FB2346D001010B85010E0001F927000E2C
:101EB200FA23FB233DD0F9C0F6FFFAC0F7FFFBC0BF
:101EC200F8FF0900F5CF01F001502D0AC7E0F9C073
:101ED200F6FFFAC0F7FFFBC0F8FF0900F5CF01F0EB
:101EE2000150200AC4E0F9C0F6FFFAC0F7FFFBC0B8
:101EF200F8FF0900F5CF01F001502B0AC1E0F9C04B
:101F0200F6FFFAC0F7FFFBC0F8FF0900F5CF01F0BA
:101F12000150230ABEE0F9C0F6FFFAC0F7FFFBC08A
:101F2200F8FF0900F5CF01F00150300ABBE001D003
:101F320094D701010BA301D00B910BA701D00B95F4
:101F4200F9C0F6FFFAC0F7FFFBC0F8FF0900F5CFB2
:101F520000F0000E016E00C01FF139DD005235E0C5
:101F6200096B0A6B09C100F00AC101F00A0E046E86
:101F7200000E056E15DFF9C0F6FFFAC0F7FFFBC0D1
:101F8200F8FF0900F5CF02F002500024096F000E9D
:101F920001200A6F300E095F000E0A5B010E00017C
:101FA200F927000EFA23FB23F9C0F6FFFAC0F7FF68
:101FB200FBC0F8FF0900F5CF00F0000E016E00C073
:101FC2001FF105DD0052CEE134D0F9C0F6FFFAC0B0
:101FD200F7FFFBC0F8FF0900F5CF01F001502A0A14
:101FE20028E1FCC0E9FFFDC0EAFFEECF00F0EECF32
:101FF20001F000C0E9FF01C0EAFFEECF09F1EECF28
:102002000AF1FCC0E9FFFDC0EAFF020EEE24006EF9
:10201200000EEE20016EFCC0E1FFFDC0E2FF00C039
:10202200E6FF01C0E6FF010E0001F927000EFA23C8
:10203200FB23F9C0F6FFFAC0F7FFFBC0F8FF090067
:10204200F5CF01F001502E0A71E10001010EF927CE
:10205200000EFA23FB23F9C0F6FFFAC0F7FFFBC01C
:10206200F8FF0900F5CF01F001502A0A28E1FCC06F
:10207200E9FFFDC0EAFFEECF00F0EECF01F000C0B5
:10208200E9FF01C0EAFFEECF06F1EECF07F1FCC097
:10209200E9FFFDC0EAFF020EEE24006E000EEE2004
:1020A200016EFCC0E1FFFDC0E2FF00C0E6FF01C01F
:1020B200E6FF010EF927000EFA23FB2336D00101B9
:1020C200066B076BF9C0F6FFFAC0F7FFFBC0F8FF1B
:1020D2000900F5CF00F0000E016E00C01FF177DCA1
:1020E200005223E006C100F007C101F00A0E046E9F
:1020F200000E056E55DEF9C0F6FFFAC0F7FFFBC011
:10210200F8FF0900F5CF02F002500024066F000E1E
:102112000120076F300E065F000E075B010E000103
:10212200F927000EFA23FB23CDD704D00101066B59
:10213200076B0C89F9C000F0FAC001F0FBC002F095
:10214200010E0001F927000EFA23FB2300C0F6FF5F
:1021520001C0F7FF02C0F8FF0900F5CF08F100D176
:1021620017C100F018C101F07AEF1FF001010B89CD
:10217200E1D70C8535D10B8B0C8132D10C8330D158
:102182000B8D2ED12DD10B8B0B8F2AD1FCC0E9FFE9
:10219200FDC0EAFFEECF00F0EECF01F000C0E9FF94
:1021A20001C0EAFFEECF13F1EECF14F1FCC0E9FF5C
:1021B200FDC0EAFF020EEE24006E000EEE20016E5C
:1021C200FCC0E1FFFDC0E2FF00C0E6FF01C0E6FF88
:1021D200000E141902E1000E131904E13E0E136FF2
:1021E200000E146F156B166B15511325E96E1651FF
:1021F2001421EA6EEE520BE0010E1525006E000E60
:102202001621016E00C015F101C016F1EDD706517D
:1022120007110AE01651075D02E11551065D04E25D
:1022220006C115F107C116F10A51165D02E1095105
:10223200155D05E21551095F16510A5B02D0096B63
:102242000A6B0BB718D009C100F00AC101F0010EE8
:10225200095F000E0A5B005001100DE0F7C0E1FFBC
:10226200F8C0E2FF200EE66E0001F74BF82B0101E9
:10227200174B182BE8D715C102F016C103F0010E57
:10228200155D006E000E1659016E00C015F101C0F9
:1022920016F1025003101BE013C1E9FF14C1EAFF5B
:1022A200F7C0E1FFF8C0E2FFEECFE6FF0001F74B17
:1022B200F82B010E01011325006E000E1421016E90
:1022C20000C013F101C014F1174B182BD4D70BA780
:1022D20018D009C100F00AC101F0010E095F000E19
:1022E2000A5B005001100DE0F7C0E1FFF8C0E2FF09
:1022F200200EE66E0001F74BF82B0101174B182B4D
:10230200E8D77BD5FCC0E9FFFDC0EAFFEECF00F0C5
:10231200EECF01F000C0E9FF01C0EAFFEECF08F105
:10232200FCC0E9FFFDC0EAFF020EEE24006E000EC3
:10233200EE20016EFCC0E1FFFDC0E2FF00C0E6FF3F
:1023420001C0E6FF080E136F010E146F010E156F28
:10235200000E166F5CD7C00E0B13000E0C1340D08C
:1023620001010851000AD8B4FBD608516C0AD8B44E
:10237200FDD608514C0AD8B4F9D60851660AD8B429
:10238200F8D60851450AD8B4F6D60851650AD8B429
:10239200F3D60851670AD8B4F1D608516F0AD8B4F7
:1023A200EFD60851640AD8B4EDD60851690AD8B4F8
:1023B200E9D60851700AD8B4E6D60851580AD8B4FA
:1023C200E2D60851780AD8B4DFD60851730AD8B4D5
:1023D200DDD60851630A96E00851750ABCE0B2D70F
:1023E200000E0B15006E0C51070B016E0050011010
:1023F200D8B401EF1BF00CA904D0060E066F000E34
:10240200076FFCC0E9FFFDC0EAFFEECF00F0EECFA0
:1024120001F000C0E9FF01C0EAFFEECF0DF1EECFFF
:102422000EF1EECF0FF1EECF10F1FCC0E9FFFDC0CF
:10243200EAFF040EEE24006E000EEE20016EFCC0D8
:10244200E1FFFDC0E2FF00C0E6FF01C0E6FF046A53
:10245200056A066A076A0DC100F00EC101F00FC1DC
:1024620002F010C103F0F4EC0CF0010ED8B0000E33
:10247200006E005205E00F7F030E0B13000E0C13CB
:10248200116B126B0DC100F00EC101F00FC102F011
:1024920010C103F0046A056A066A076ADFEC05F0F8
:1024A200000ED8A4010E006E0052D8B489D010C11B
:1024B20000F0016A026A036AFF0E0016000E01169E
:1024C2007E0E005E000E015A00C011F101C012F131
:1024D200010E005E000E015A00C011F101C012F19E
:1024E200030E046E000E056E5BDC00C011F101C02C
:1024F20012F10A0E046E000E056EF6EC05F000C035
:1025020011F101C012F1800E0118026E800E025C00
:1025120002E1000E005C05E2010E0101115F000EF6
:10252200125B0101115100081F6F59EC06F00DC139
:1025320004F00EC105F00FC106F010C107F0A3ECC4
:1025420004F000C013F101C014F102C015F103C080
:1025520016F1000E046E000E056E000E066E7F0E62
:10256200076E13C100F014C101F015C102F016C1CB
:1025720003F0F4EC0CF0010ED8B0000E006E005225
:1025820005E0010E115F000E125B1AD0000E046E00
:10259200000E056E200E066E820E076E13C100F04D
:1025A20014C101F015C102F016C103F0F4EC0CF0F5
:1025B200000ED8B0010E006E005202E0114B122B39
:1025C200800E006E800E1219005C02E111510008AB
:1025D20003E3010E086F02D011C108F10CB119D04A
:1025E2000CA315D0800E1219006E7F0E005C02E162
:1025F200FC0E115D0BE3800E1219006E800E07199E
:10260200005C02E10651115D01E201D002D01BEF34
:1026120017F00651071106E00CA304D0010E065F65
:10262200000E075B0751000802E10651080803E2A9
:10263200080E086F02D006C108F10DC100F00EC1EC
:1026420001F00FC102F010C103F0046A056A066AC4
:10265200076ADFEC05F0000ED8A4010E006E0052EE
:10266200D8B44BD111C11FF159EC06F000C004F0EF
:1026720001C005F002C006F003C007F00DC100F072
:102682000EC101F00FC102F010C103F04BEC09F0D2
:1026920000C00DF101C00EF102C00FF103C010F134
:1026A2000101085100081F6F59EC06F000C004F048
:1026B20001C005F002C006F003C007F00DC100F032
:1026C2000EC101F00FC102F010C103F04BEC09F092
:1026D20000C019F101C01AF102C01BF103C01CF1C4
:1026E20019C10DF11AC10EF11BC10FF11CC110F17C
:1026F20019C100F01AC101F01BC102F01CC103F0A4
:1027020009EC0AF038EC09F000C004F001C005F051
:1027120002C006F003C007F019C100F01AC101F0AF
:102722001BC102F01CC103F0C3EC05F0000E046EE5
:10273200000E056E000E066E7E0E076EF4EC0CF0B7
:10274200000ED8B0010E006E00521AE00DC100F06A
:102752000EC101F00FC102F010C103F0000E046EB1
:10276200000E056E000E066E7E0E076E90EC02F0F5
:1027720000C00DF101C00EF102C00FF103C010F153
:102782000DC100F00EC101F00FC102F010C103F043
:1027920009EC0AF001010851010F096E0A6A000EE4
:1027A2000A2209C004F00AC005F0000E0ABEFF0E9C
:1027B200066E076E04360490053606360736043672
:1027C2000490053606360736DE0E0424F66E560EE3
:1027D2000520F76E000E0620F86E0900F5CF05F011
:1027E2000900F5CF06F00900F5CF07F00900F5CF93
:1027F20008F00850035C08E10750025C05E106504E
:10280200015C02E10550005C1EE301010DC100F014
:102812000EC101F00FC102F010C103F0CD0E046E23
:10282200CC0E056E4C0E066E7B0E076EA3EC04F00A
:1028320000C00DF101C00EF102C00FF103C010F192
:10284200114B122B5AD00DC100F00EC101F00FC175
:1028520002F010C103F009EC0AF008C104F0000E06
:10286200056E066E076E0436049005360636073688
:1028720004360490053606360736DE0E0424F66E5C
:10288200560E0520F76E000E0620F86E0900F5CFF1
:1028920005F00900F5CF06F00900F5CF07F00900B1
:1028A200F5CF08F00850035C08E10750025C05E12F
:1028B2000650015C02E10550005C1FE201010DC1FE
:1028C20000F00EC101F00FC102F010C103F0000EC2
:1028D200046E000E056E200E066E820E076EA3ECCD
:1028E20004F000C00DF101C00EF102C00FF103C0EF
:1028F20010F1010E115F000E125B01010CA393D0C7
:102902000CB791D0800E000A006E800E0719005C91
:1029120002E106510A0804E20A0E066F000E076F72
:102922000DC100F00EC101F00FC102F010C103F0A1
:1029320009EC0AF000C013F101C014F102C015F154
:1029420003C016F1135114111511161142E00A0EAB
:10295200046E000E056E066E076E13C100F014C100
:1029620001F015C102F016C103F05BEC0DF008C0D6
:1029720000F009C001F00AC002F00BC003F0000E23
:10298200046E031808E10450021805E1045001180E
:1029920002E10050000A1DE1010E065F000E075B16
:1029A2000A0E046E000E056E066E076E13C100F06D
:1029B20014C101F015C102F016C103F05BEC0DF079
:1029C20000C013F101C014F102C015F103C016F1E9
:1029D200B9D7800E0719006E800E005C02E1085123
:1029E200065D21E20651085D1F6F59EC06F000C03A
:1029F20004F001C005F002C006F003C007F00DC1EB
:102A020000F00EC101F00FC102F010C103F04BEC57
:102A120009F000C00DF101C00EF102C00FF103C0B8
:102A220010F106C108F1050E01010625006E000E27
:102A32000721016E0050095F01500A5B0651071120
:102A420003E10CB701D004D0010E095F000E0A5B4E
:102A5200030E0B15006E0CC101F0000E01160050A2
:102A6200011004E0010E095F000E0A5B0BA540D0C5
:102A72000BA315D00BA104D02D0E0001FE6F03D0C5
:102A820000012B0EFE6FF7C0E1FFF8C0E2FFFEC0AF
:102A9200E6FFF74BF82B0101174B182B0ED00BA1B9
:102AA2000CD0F7C0E1FFF8C0E2FF200EE66E000195
:102AB200F74BF82B0101174B182B800E006E800E7E
:102AC2000A19005C02E10951000811E2F7C0E1FFB6
:102AD200F8C0E2FF300EE66E0001F74BF82B010161
:102AE200174B182B010E095F000E0A5BE6D741D087
:102AF2000BB71AD0800E006E800E0A19005C02E13C
:102B02000951000811E2F7C0E1FFF8C0E2FF200E10
:102B1200E66E0001F74BF82B0101174B182B010E43
:102B2200095F000E0A5BE6D70BA315D00BA104D0F8
:102B32002D0E0001FF6F03D000012B0EFF6FF7C0B7
:102B4200E1FFF8C0E2FFFFC0E6FFF74BF82B0101FF
:102B5200174B182B0ED00BA10CD0F7C0E1FFF8C019
:102B6200E2FF200EE66E0001F74BF82B0101174B36
:102B7200182B0DC100F00EC101F00FC102F010C1FF
:102B820003F009EC0AF000C013F101C014F102C015
:102B920015F103C016F108C100F0000E016E026EBD
:102BA200036E00360090013602360336003600907E
:102BB200013602360336DE0E0024F66E560E012072
:102BC200F76E000E0220F86E0900F5CF04F009003E
:102BD200F5CF05F00900F5CF06F00900F5CF07F0B3
:102BE20013C100F014C101F015C102F016C103F0C7
:102BF2005BEC0DF0300E0026F7C0E1FFF8C0E2FFFB
:102C020000C0E6FF0001F74BF82B0101174B182B10
:102C12000651071103E10CB701D075D0F7C0E1FFEF
:102C2200F8C0E2FF2E0EE66E0001F74BF82B010111
:102C3200174B182B0851065F000E075B08534FE035
:102C4200080708C100F0000E016E026E036E003626
:102C52000090013602360336003600900136023605
:102C62000336DE0E0024F66E560E0120F76E000EBD
:102C72000220F86E0900F5CF04F00900F5CF05F047
:102C82000900F5CF06F00900F5CF07F013C100F0F7
:102C920014C101F015C102F016C103F05BEC0DF096
:102CA2000A0E046E000E056E066E076E5BEC0DF0EA
:102CB20008C000F009C001F00AC002F00BC003F026
:102CC200300E0026F7C0E1FFF8C0E2FF00C0E6FFC9
:102CD2000001F74BF82B0101174B182BAFD7065108
:102CE200071111E0F7C0E1FFF8C0E2FF300EE66E17
:102CF2000001F74BF82B0101174B182B010E065F51
:102D0200000E075BECD70BAB0DD0F7C0E1FFF8C0AC
:102D1200E2FF450EE66E0001F74BF82B0101174B5F
:102D2200182B0CD0F7C0E1FFF8C0E2FF650EE66E8B
:102D32000001F74BF82B0101174B182B800E1219CB
:102D4200006E800E005C02E1000E115D13E2115173
:102D52000008116F1251000E1257F7C0E1FFF8C0C0
:102D6200E2FF2D0EE66E0001F74BF82B0101174B27
:102D7200182B0CD0F7C0E1FFF8C0E2FF2B0EE66E75
:102D82000001F74BF82B0101174B182B0A0E046EAA
:102D9200000E056E11C100F012C101F0F6EC05F053
:102DA200300E0026F7C0E1FFF8C0E2FF00C0E6FFE8
:102DB2000001F74BF82B0101174B182B0A0E046E7A
:102DC200000E056E11C100F012C101F0F6EC05F023
:102DD20008C000F009C001F0300E0026F7C0E1FF84
:102DE200F8C0E2FF00C0E6FF0001F74BF82B01013B
:102DF200174B182B0BA71CD0800E006E800E0A19E1
:102E0200005C02E10951000813E2F7C0E1FFF8C0DB
:102E1200E2FF200EE66E0001F74BF82B0101174B83
:102E2200182B010E095F000E0A5B09510A11EDE130
:102E3200FEEF0EF00CA3F3D0800E1219006E800E7E
:102E4200005C02E1000E115D0AE2010E115D006EEE
:102E5200000E1259016E0050065F0150075B0DC152
:102E620000F00EC101F00FC102F010C103F009EC35
:102E72000AF000C013F101C014F102C015F103C041
:102E820016F1010E086F08510A0A34E008C100F079
:102E9200000E016E026E036E00360090013602369D
:102EA200033600360090013602360336DE0E002469
:102EB200F66E560E0120F76E000E0220F86E090023
:102EC200F5CF01F00900F5CF02F00900F5CF03F0CC
:102ED2000900F5CF04F00450165D08E10350155DBA
:102EE20005E10250145D02E10150135D01E202D0DE
:102EF200082BC9D70851065D1D6F000E07591E6FBA
:102F02001DC106F11EC107F113C100F014C101F089
:102F120015C102F016C103F038EC09F000C004F04C
:102F220001C005F002C006F003C007F00DC100F0B9
:102F32000EC101F00FC102F010C103F0C3EC05F0A5
:102F420000C019F101C01AF102C01BF103C01CF14B
:102F52001DC11FF159EC06F019C104F01AC105F0A8
:102F62001BC106F01CC107F0A3EC04F0000E046EB6
:102F7200000E056E000E066E7E0E076E90EC02F0DD
:102F820009EC0AF000C013F101C014F102C015F1FE
:102F920003C016F10651071142E00A0E046E000E3C
:102FA200056E066E076E13C100F014C101F015C163
:102FB20002F016C103F05BEC0DF008C000F009C08E
:102FC20001F00AC002F00BC003F0000E046E0318F9
:102FD20008E10450021805E10450011802E1005012
:102FE200000A1DE10A0E046E000E056E066E076EE3
:102FF20013C100F014C101F015C102F016C103F0B3
:103002005BEC0DF000C013F101C014F102C015F128
:1030120003C016F1010E065F000E075BBBD7800EE0
:10302200006E800E0719005C02E106510C0816E3DF
:1030320006C11FF1CEEC0AF00DC104F00EC105F07D
:103042000FC106F010C107F090EC02F000C00DF1C4
:1030520001C00EF102C00FF103C010F10DC100F06A
:103062000EC101F00FC102F010C103F0046A056A3B
:10307200066A076ADFEC05F0000ED8A4010E006EA6
:103082000052D8B477D00DC100F00EC101F00FC1CB
:1030920002F010C103F009EC0AF0000E046E0318EE
:1030A20008E10450021805E10450011802E1005041
:1030B200000A60E1800E006E800E1219005C02E1CF
:1030C2001151010857E211C11FF159EC06F000C07D
:1030D20004F001C005F002C006F003C007F00DC104
:1030E20000F00EC101F00FC102F010C103F04BEC71
:1030F20009F05F0E046E700E056E090E066E810EEB
:10310200076EF4EC0CF0010ED8B0000E006E005207
:1031120006E0090E0101115F000E125B05D00101EC
:10312200080E115F000E125B11C11FF159EC06F07F
:1031320000C004F001C005F002C006F003C007F0B1
:103142000DC100F00EC101F00FC102F010C103F079
:103152004BEC09F009EC0AF000C013F101C014F1C4
:1031620002C015F103C016F101010D6B0E6B0F6B5E
:10317200106B38D00DC100F00EC101F00FC102F08A
:1031820010C103F009EC0AF000C013F101C014F100
:1031920002C015F103C016F113C100F014C101F011
:1031A20015C102F016C103F038EC09F000C004F0BA
:1031B20001C005F002C006F003C007F00DC100F027
:1031C2000EC101F00FC102F010C103F0C3EC05F013
:1031D20000C00DF101C00EF102C00FF103C010F1E9
:1031E200116B126B010E086F08510A0A34E008C114
:1031F20000F0000E016E026E036E00360090013682
:103202000236033600360090013602360336DE0EF1
:103212000024F66E560E0120F76E000E0220F86EA4
:103222000900F5CF01F00900F5CF02F00900F5CF52
:1032320003F00900F5CF04F00450165D08E10350D5
:10324200155D05E10250145D02E10150135D01E2DA
:1032520002D0082BC9D708510625006E000E07219F
:10326200016E11510026125101220050095F0150D6
:103272000A5B0CB704D00651071101E104D0010E1C
:10328200095F000E0A5B030E0B15006E0CC101F004
:10329200000E01160050011004E0010E095F000E3D
:1032A2000A5B0BA53FD00BA314D00BA103D02D0EAC
:1032B200006F02D02B0E006FF7C0E1FFF8C0E2FFF3
:1032C20000C1E6FF0001F74BF82B0101174B182B49
:1032D2000ED00BA10CD0F7C0E1FFF8C0E2FF200E28
:1032E200E66E0001F74BF82B0101174B182B800EED
:1032F200006E800E0A19005C02E10951000811E219
:10330200F7C0E1FFF8C0E2FF300EE66E0001F74BB6
:10331200F82B0101174B182B010E095F000E0A5BF7
:10332200E6D740D00BB71AD0800E006E800E0A1975
:10333200005C02E10951000811E2F7C0E1FFF8C0A8
:10334200E2FF200EE66E0001F74BF82B0101174B4E
:10335200182B010E095F000E0A5BE6D70BA314D0EF
:103362000BA103D02D0E016F02D02B0E016FF7C0FF
:10337200E1FFF8C0E2FF01C1E6FF0001F74BF82BC5
:103382000101174B182B0ED00BA10CD0F7C0E1FF97
:10339200F8C0E2FF200EE66E0001F74BF82B0101A8
:1033A200174B182B08C100F0080700524EE008C165
:1033B20000F0000E016E026E036E003600900136C0
:1033C2000236033600360090013602360336DE0E30
:1033D2000024F66E560E0120F76E000E0220F86EE3
:1033E2000900F5CF04F00900F5CF05F00900F5CF8B
:1033F20006F00900F5CF07F013C100F014C101F087
:1034020015C102F016C103F05BEC0DF00A0E046E5A
:10341200000E056E066E076E5BEC0DF008C000F044
:1034220009C001F00AC002F00BC003F0300E002602
:10343200F7C0E1FFF8C0E2FF00C0E6FF0001F74B72
:10344200F82B0101174B182BADD7800E006E800EA2
:103452001219005C02E11151000811E2F7C0E1FF0C
:10346200F8C0E2FF300EE66E0001F74BF82B0101C7
:10347200174B182B010E115F000E125BE6D7800E60
:10348200000A006E800E0719005C02E1065108086E
:1034920003E2080E086F02D006C108F10851065F68
:1034A200000E075B085303E10CB701D00CD0F7C044
:1034B200E1FFF8C0E2FF2E0EE66E0001F74BF82B9B
:1034C2000101174B182B08C11FF159EC06F00DC171
:1034D20004F00EC105F00FC106F010C107F0A3EC15
:1034E20004F04FEC0CF000C013F101C014F102C063
:1034F20015F103C016F108534FE0080708C100F0A8
:10350200000E016E026E036E003600900136023626
:10351200033600360090013602360336DE0E0024F2
:10352200F66E560E0120F76E000E0220F86E0900AC
:10353200F5CF04F00900F5CF05F00900F5CF06F04C
:103542000900F5CF07F013C100F014C101F015C155
:1035520002F016C103F05BEC0DF00A0E046E000ED1
:10356200056E066E076E5BEC0DF008C000F009C038
:1035720001F00AC002F00BC003F0300E0026F7C0C3
:10358200E1FFF8C0E2FF00C0E6FF0001F74BF82BB5
:103592000101174B182BAFD70651071111E0F7C0E5
:1035A200E1FFF8C0E2FF300EE66E0001F74BF82BA8
:1035B2000101174B182B010E065F000E075BECD7BB
:1035C2000BA71CD0800E006E800E0A19005C02E16F
:1035D2000951000813E2F7C0E1FFF8C0E2FF200E34
:1035E200E66E0001F74BF82B0101174B182B010E69
:1035F200095F000E0A5B09510A11EDE1FEEF0EF0C0
:10360200C00E0B15016E0CC102F0000E0216000E68
:10361200021802E1000E0118D8A480D00BA927D00D
:10362200FCC0E9FFFDC0EAFFEECF00F0EECF01F0F3
:1036320000C0E9FF01C0EAFFEECF13F1EECF14F1B3
:10364200EECF15F1EECF16F1FCC0E9FFFDC0EAFFA7
:10365200040EEE24006E000EEE20016EFCC0E1FFAF
:10366200FDC0E2FF00C0E6FF01C0E6FF2FD0FCC0B4
:10367200E9FFFDC0EAFFEECF00F0EECF01F000C09F
:10368200E9FF01C0EAFFEECF00F0EECF01F0000E3D
:1036920001BEFF0E026E036E00C013F101C014F1F1
:1036A20002C015F103C016F1FCC0E9FFFDC0EAFF3C
:1036B200020EEE24006E000EEE20016EFCC0E1FF51
:1036C200FDC0E2FF00C0E6FF01C0E6FF800E161952
:1036D200006E800E005C08E1000E155D05E1000E33
:1036E200145D02E1000E135D18E2030E0B13000ECF
:1036F2000C13006A016A026A036A1351005E1451D4
:10370200015A1551025A1651035A00C013F101C051
:1037120014F102C015F103C016F14ED00BA927D047
:10372200FCC0E9FFFDC0EAFFEECF00F0EECF01F0F2
:1037320000C0E9FF01C0EAFFEECF13F1EECF14F1B2
:10374200EECF15F1EECF16F1FCC0E9FFFDC0EAFFA6
:10375200040EEE24006E000EEE20016EFCC0E1FFAE
:10376200FDC0E2FF00C0E6FF01C0E6FF25D0FCC0BD
:10377200E9FFFDC0EAFFEECF00F0EECF01F000C09E
:10378200E9FF01C0EAFFEECF13F1EECF14F1000E14
:10379200156F166FFCC0E9FFFDC0EAFF020EEE24B2
:1037A200006E000EEE20016EFCC0E1FFFDC0E2FFE4
:1037B20000C0E6FF01C0E6FF000E071902E1000E9D
:1037C20006190FE1000E006E161908E100501519D6
:1037D20005E10050141902E11351000A02E1064BFF
:1037E200072BC00E0B15006E00C005F0AED0010E07
:1037F200086F08510A0A34E008C100F0000E016E99
:10380200026E036E00360090013602360336003631
:103812000090013602360336DE0E0024F66E560E96
:103822000120F76E000E0220F86E0900F5CF01F0BC
:103832000900F5CF02F00900F5CF03F00900F5CF3A
:1038420004F00450165D08E10350155D05E10250D5
:10385200145D02E10150135D01E202D0082BC9D7C9
:1038620082D0010E086F0851080A34E008C100F046
:10387200000E016E026E036E0036009001360236B3
:10388200033600360090013602360336060E002457
:10389200F66E570E0120F76E000E0220F86E090038
:1038A200F5CF01F00900F5CF02F00900F5CF03F0E2
:1038B2000900F5CF04F00450165D08E10350155DD0
:1038C20005E10250145D02E10150135D01E202D0F4
:1038D200082BC9D748D0010E086F08510C0A34E0F2
:1038E20008C100F0000E016E026E036E00360090F9
:1038F20001360236033600360090013602360336B0
:103902007E0E0024F66E560E0120F76E000E022087
:10391200F86E0900F5CF01F00900F5CF02F00900B9
:10392200F5CF03F00900F5CF04F00450165D08E16D
:103932000350155D05E10250145D02E10150135D73
:1039420001E202D0082BC9D70ED00550000AD8B424
:103952004ED70550C00AD8B44AD70550800A81E034
:103962000550400AB8E0800E006E800E0719005C18
:1039720002E10651085D03E206C108F10DD0800E96
:103982000719006E800E005C02E10851065D04E238
:1039920008C106F1000E076F09510A110EE0030E6D
:1039A2000B15006E0CC101F0000E01160050011043
:1039B20004E0010E095F000E0A5B800E0719006E1B
:1039C200800E0A19005C02E10951065D05E206510A
:1039D200095F07510A5B02D0096B0A6BC40E0B1513
:1039E200016E0C51080B026E0250080A02E1400EF1
:1039F200011808E109510A1104E0010E095F000EE5
:103A02000A5B1CD0C00E0B15016E0C51080B026E26
:103A12000250080A02E1800E011810E1800E006EC9
:103A2200800E0A19005C02E10951020805E2020E49
:103A3200095F000E0A5B02D0096B0A6B0BA567D007
:103A42000BA314D00BA103D02D0E026F02D02B0EAC
:103A5200026FF7C0E1FFF8C0E2FF02C1E6FF00011A
:103A6200F74BF82B0101174B182B3AD00BA10DD0B5
:103A7200F7C0E1FFF8C0E2FF200EE66E0001F74B4F
:103A8200F82B0101174B182B2BD0C00E0B15016E12
:103A92000C51080B026E0250080A02E1800E011856
:103AA2001FE1F7C0E1FFF8C0E2FF300EE66E000151
:103AB200F74BF82B0101174B182B0BAB03D0580E09
:103AC200036F02D0780E036FF7C0E1FFF8C0E2FF88
:103AD20003C1E6FF0001F74BF82B0101174B182B2E
:103AE20009510A1113E0F7C0E1FFF8C0E2FF300EFE
:103AF200E66E0001F74BF82B0101174B182B010E54
:103B0200095F000E0A5B09510A11EDE180D00951EB
:103B12000A1115E00BB713D0F7C0E1FFF8C0E2FFBE
:103B2200200EE66E0001F74BF82B0101174B182B04
:103B3200010E095F000E0A5B09510A11EDE10BA3A8
:103B420014D00BA103D02D0E046F02D02B0E046FE4
:103B5200F7C0E1FFF8C0E2FF04C1E6FF0001F74B46
:103B6200F82B0101174B182B0ED00BA10CD0F7C06C
:103B7200E1FFF8C0E2FF200EE66E0001F74BF82BE2
:103B82000101174B182BC00E0B15016E0C51080BBF
:103B9200026E0250080A02E1400E01180DE1F7C060
:103BA200E1FFF8C0E2FF300EE66E0001F74BF82BA2
:103BB2000101174B182B2BD0C00E0B15016E0C51A7
:103BC200080B026E0250080A02E1800E01181FE182
:103BD200F7C0E1FFF8C0E2FF300EE66E0001F74BDE
:103BE200F82B0101174B182B0BAB03D0580E056FA6
:103BF20002D0780E056FF7C0E1FFF8C0E2FF05C101
:103C0200E6FF0001F74BF82B0101174B182B800E32
:103C1200006E800E0719005C02E10651085D0DE29C
:103C2200F7C0E1FFF8C0E2FF300EE66E0001F74B8D
:103C3200F82B0101174B182BEAD706C100F007C178
:103C420001F0010E065F000E075B00500110D8B4B0
:103C52002CD1C00E0B15006E00C019F10AD106C19D
:103C620000F007C101F0000E07BFFF0E026E036EE7
:103C720000360090013602360336003600900136D7
:103C820002360336DE0E0024F66E560E0120F76E63
:103C9200000E0220F86E0900F5CF04F00900F5CFFE
:103CA20005F00900F5CF06F00900F5CF07F013C1C2
:103CB20000F014C101F015C102F016C103F05BEC73
:103CC2000DF00A0E046E000E056E066E076E5BECBA
:103CD2000DF008C000F009C001F00AC002F00BC0EC
:103CE20003F0300E0024086FD3D00BAB45D006C1D1
:103CF20000F007C101F0000E07BFFF0E026E036E57
:103D02000036009001360236033600360090013646
:103D120002360336060E0024F66E570E0120F76EA9
:103D2200000E0220F86E0900F5CF04F00900F5CF6D
:103D320005F00900F5CF06F00900F5CF07F013C131
:103D420000F014C101F015C102F016C103F05BECE2
:103D52000DF00F0E0016000E011602160316370E96
:103D62000024F66E570E0120F76E000E0220F86E48
:103D72000900F5CF08F144D006C100F007C101F0F7
:103D8200000E07BFFF0E026E036E00360090013672
:103D92000236033600360090013602360336060E2E
:103DA2000024F66E570E0120F76E000E0220F86E08
:103DB2000900F5CF04F00900F5CF05F00900F5CFB1
:103DC20006F00900F5CF07F013C100F014C101F0AD
:103DD20015C102F016C103F05BEC0DF00F0E0016D8
:103DE200000E011602160316260E0024F66E570E5A
:103DF2000120F76E000E0220F86E0900F5CF08F1DF
:103E020047D006C100F007C101F0000E07BFFF0E48
:103E1200026E036E0036009001360236033600361B
:103E220000900136023603367E0E0024F66E560EE0
:103E32000120F76E000E0220F86E0900F5CF04F0A3
:103E42000900F5CF05F00900F5CF06F00900F5CF1E
:103E520007F013C100F014C101F015C102F016C140
:103E620003F05BEC0DF0070E0014086F300E08270C
:103E72000FD01951000AD8B4F2D61951C00AD8B4D9
:103E8200EED61951800AD8B430D71951400AB9E098
:103E9200F7C0E1FFF8C0E2FF08C1E6FF0001F74BFF
:103EA200F82B0101174B182BC8D60BA71CD0800E7C
:103EB200006E800E0A19005C02E10951000813E24B
:103EC200F7C0E1FFF8C0E2FF200EE66E0001F74BFB
:103ED200F82B0101174B182B010E095F000E0A5B2C
:103EE20009510A11EDE1FEEF0EF017C100F018C101
:043EF20001F01200C9
:103EF600F20E01011F6FC6EC05F0000E0014010161
:103F0600206F0001F75101012013F20E1F6F26ECFE
:043F160009F012009C
:103F1A000001FA6BF7C0E9FFF8C0EAFFEECFF9F04B
:103F2A00F951000A0FE0F9C02AF11BEC00F0000178
:103F3A00FA2BFA51F725E96E000EF821EA6EEECF58
:063F4A00F9F0EED71200B1
:103F5000F40E01011F6FC6EC05F01F0E00140101E5
:103F6000206F050E016EF7C000F0015004E000362E
:103F70000090FF0FFBD700502013F40E1F6F26ECAC
:043F800009F0120032
:103F8400F40E01011F6FC6EC05F0E30E00140101ED
:103F9400206FF7C000F0003600900036009000500B
:0C3FA4002013F40E1F6F26EC09F0120031
:103FB00065C000F066C001F067C002F068C003F0A1
:103FC0000332023201320032039E03BC038E00C072
:103FD0000DF101C00EF102C00FF103C010F1000E8F
:103FE00001010D5FFA0E0E5B000E0F5B000E105B01
:103FF0000DC1F7F00EC1F8F00FC1F9F010C1FAF0E1
:104000000DC100F00EC101F00FC102F010C103F0AC
:104010000332023201320032039E03BC038E0332AC
:10402000023201320032039E03BC038E00C004F052
:1040300001C005F002C006F003C007F0A5EC0AF0CD
:1040400000C009F101C00AF102C00BF103C00CF17C
:104050000B0E006E09C104F00AC105F00BC106F099
:104060000CC107F0005009E0073206320532043275
:10407000079E07BC078EFF0FF6D755C000F056C04D
:1040800001F0000E56BEFF0E026E036EA5EC0AF0A4
:1040900000C005F101C006F102C007F103C008F13C
:1040A00005C1FBF006C1FCF007C1FDF008C1FEF040
:1040B00057C000F058C001F0000E58BEFF0E026E4F
:1040C000036E0DC104F00EC105F00FC106F010C162
:1040D00007F0A5EC0AF000C004F001C005F002C032
:1040E00006F003C007F0043604900536063607369E
:1040F000045005250001FB6F055001010621000158
:10410000FC6F0650010107210001FD6F07500101FE
:1041100008210001FE6FFE33FD33FC33FB33FE9FAD
:10412000FEBDFE8FFE33FD33FC33FB33FE9FFEBD31
:10413000FE8F59C005F05AC006F0000E5ABEFF0EA1
:10414000076E086E06C003F005C002F0006A016A3F
:104150000050FB270150FC230250FD230350FE2397
:104160000D0E046E09C100F00AC101F00BC102F08E
:104170000CC103F0045009E0033202320132003274
:10418000039E03BC038EFF0FF6D74FC004F050C050
:1041900005F0000E50BEFF0E066E076EA5EC0AF08D
:1041A000030E046E00C005F101C006F102C007F164
:1041B00003C008F104500AE0010108330733063355
:1041C0000533089F08BD088FFF0FF5D7010151C0C7
:1041D00000F052C001F0000E52BEFF0E026E036EE0
:1041E0000DC104F00EC105F00FC106F010C107F0BB
:1041F000A5EC0AF000C004F001C005F002C006F012
:1042000003C007F00732063205320432079E07BCAE
:10421000078E04500525086E05500621096E0650CC
:1042200007210A6E075008210B6E120E046E08C09B
:1042300000F009C001F00AC002F00BC003F0045006
:1042400009E00332023201320032039E03BC038EC6
:10425000FF0FF6D700C0F7F001C0F8F002C0F9F088
:1042600003C0FAF0000E0024046E800E0120056EDB
:10427000000E0220066E000E0320076E53C000F0F1
:1042800054C001F0000E026E036EA5EC0AF00F0E92
:10429000086E00C004F001C005F002C006F003C0C3
:1042A00007F0085009E00732063205320432079E53
:1042B00007BC078EFF0FF6D704C0F7F005C0F8F073
:1042C00006C0F9F007C0FAF0000E006E071808E10A
:1042D0000050061805E10050051802E10450000ADC
:1042E00005E1006A016A026A036A72D1000E086E73
:1042F000000E096E100E0A6E000E0B6E0001615169
:10430000085E6251095A63510A5A64510B5A0C0EE5
:10431000006EFBC004F0FCC005F0FDC006F0FEC05E
:1043200007F0005009E00732063205320432079EDA
:1043300007BC078EFF0FF6D708C000F009C001F0D8
:104340000AC002F00BC003F00450005E0550015A91
:104350000650025A0750035A350E046E0C0E056EB5
:10436000000E066E076EA5EC0AF000C001F101C058
:1043700002F102C003F103C004F1800E035C08E106
:10438000000E025C05E1000E015C02E1000E005C23
:1043900020E201C100F002C101F003C102F004C13A
:1043A00003F000360090013602360336F7C004F001
:1043B000F8C005F0F9C006F0FAC007F05BEC0DF0AC
:1043C00000C001F101C002F102C003F103C004F119
:1043D00020D0F7C004F0F8C005F0F9C006F0FAC02C
:1043E00007F001C100F002C101F003C102F004C1F5
:1043F00003F05BEC0DF000C001F101C002F102C05E
:1044000003F103C004F101010137019102370337C1
:104410000437010146C005F147C006F1000E47BE52
:10442000FF0E076F086F030E046E01C100F002C19A
:1044300001F003C102F004C103F0045007E00332AD
:10444000023201320032039EFF0FF8D700C004F0A1
:1044500001C005F002C006F003C007F0A5EC0AF0A9
:104460000D0E086E00C004F001C005F002C006F099
:1044700003C007F0085007E0073206320532043265
:10448000079EFF0FF8D705C100F006C101F007C174
:1044900002F008C103F0A5EC0AF00C0E046E00C097
:1044A00005F101C006F102C007F103C008F1045094
:1044B0000AE001010833073306330533089F08BDBE
:1044C000088FFF0FF5D705C1F7F006C1F8F007C157
:1044D000F9F008C1FAF001C104F002C105F003C10E
:1044E00006F004C107F00732063205320432079E97
:1044F0000732063205320432079E48C000F049C038
:1045000001F0000E49BEFF0E026E036EA5EC0AF02C
:104510000D0E086E00C004F001C005F002C006F0E8
:1045200003C007F0085009E00732063205320432B2
:10453000079E07BC078EFF0FF6D7010104C0FBF0F2
:1045400005C0FCF006C0FDF007C0FEF004500525D4
:10455000006E05500621016E06500721026E0750BD
:104560000821036E4D500024056E4E500120066E4A
:10457000000E4EBEFF0E0220076E000E4EBEFF0E56
:104580000320086E040E046E05C000F006C001F0A2
:1045900007C002F008C003F0045009E00332023201
:1045A00001320032039E03BC038EFF0FF6D70101D8
:1045B000015100260251012203510222045103221B
:1045C00000C001F101C002F102C003F103C004F117
:0245D0001200D7
:1045D20065C00DF166C00EF167C00FF168C010F141
:1045E200000E01010D5F2C0E0E5B010E0F5B000E23
:1045F200105B0DC101F10EC102F10FC103F110C137
:1046020004F10E0E006E71C009F072C00AF073C0A0
:104612000BF074C00CF0005007E0093609900A361E
:104622000B360C36FF0FF8D74AC005F0000E4ABE13
:10463200FF0E066E076E086E140E046E05C000F0C3
:1046420006C001F007C002F008C003F0045007E002
:1046520000360090013602360336FF0FF8D709C044
:1046620005F10AC006F10BC007F10CC008F10050B9
:10467200055F0150065B0250075B0350085B5BC09D
:1046820000F0000E5BBEFF0E016E026E036E0DC1E6
:1046920004F00EC105F00FC106F010C107F0A5EC41
:1046A2000AF005C107F006C108F007C109F008C108
:1046B2000AF00050075E0150085A0250095A03508E
:1046C2000A5A000E0724036E400E0820046E000EE4
:1046D2000920056E000E0A20066E0F0E006E03C042
:1046E20009F104C00AF105C00BF106C00CF100503B
:1046F20007E00C330B330A3309330C9FFF0FF8D753
:1047020060C000F0000E016E026E036E0DC104F077
:104712000EC105F00FC106F010C107F0A5EC0AF0BA
:104722000A0E046E00C005F101C006F102C007F1D5
:1047320003C008F1045009E0083307330633053398
:10474200089F08BD088FFF0FF6D74BC000F0000E80
:10475200016E026E036E0DC104F00EC105F00FC1B1
:1047620006F010C107F0A5EC0AF00B0E086E00C0AF
:1047720004F001C005F002C006F003C007F00850C3
:1047820009E00732063205320432079E07BC078E63
:10479200FF0FF6D7000E0424006E800E0520016E76
:1047A200000E0620026E000E0720036E05C104F003
:1047B20006C105F007C106F008C107F0A5EC0AF032
:1047C2000A0E086E00C004F001C005F002C006F037
:1047D20003C007F0085009E00732063205320432FE
:1047E200079E07BC078EFF0FF6D7000E0426000EA9
:1047F2000522200E0622000E07224CC000F0000EF9
:104802004CBEFF0E016E026E036EA5EC0AF0000EA6
:104812000024056E200E0120066E000E0220076E97
:10482200000E0320086E0E0E046E05C000F006C0D6
:1048320001F007C002F008C003F0045009E003329F
:10484200023201320032039E03BC038EFF0FF6D701
:1048520009C104F00AC105F00BC106F00CC107F052
:10486200A5EC0AF000C005F101C006F102C007F193
:1048720003C008F105C101F106C102F107C103F14C
:1048820008C104F10F0E046E05C100F006C101F06B
:1048920007C102F008C103F0045009E003320232FA
:1048A20001320032039E03BC038EFF0FF6D700C015
:1048B20004F001C005F002C006F003C007F0A5EC49
:1048C2000AF0070E086E00C004F001C005F002C035
:1048D20006F003C007F0085009E00732063205323D
:1048E2000432079E07BC078EFF0FF6D745C000F0C3
:1048F200000E016E026E036EA5EC0AF0040E046E49
:1049020000C005F001C006F002C007F003C008F0C5
:10491200045009E00832073206320532089E08BC0C
:10492200088EFF0FF6D705C101F006C102F007C1DC
:1049320003F008C104F00550015E0650025A075008
:10494200035A0850045A01C001F102C002F103C027
:1049520003F104C004F1800E0418006E800E005CA6
:1049620008E1000E035C05E1000E025C02E1000EAC
:10497200015C06E20001F76BF86BF96BFA6B08D089
:1049820001C1F7F002C1F8F003C1F9F004C1FAF075
:104992000001F7C001F1F8C002F1F9C003F1FAC059
:1049A20004F1800E190A006E800EFA19005C08E10B
:1049B200F951000805E1F851000802E1F751000839
:1049C20009E2000EFB6F000EFC6F000EFD6F190E68
:1049D200FE6F08D001C1FBF002C1FCF003C1FDF083
:1049E20004C1FEF0FBC001F1FCC002F1FDC003F105
:1049F200FEC004F10C0E046EFBC000F0FCC001F01E
:104A0200FDC002F0FEC003F0045009E0033202329E
:104A120001320032039E03BC038EFF0FF6D7120051
:104A2200030E006E6DC009F06EC00AF06FC00BF08D
:104A320070C00CF0005007E00C320B320A3209321F
:104A42000C9EFF0FF8D790C005F091C006F0000E43
:104A5200076E086E05C000F006C001F007C002F044
:104A620008C003F00036009001360236033609C052
:104A720004F00AC005F00BC006F00CC007F00050AD
:104A8200045E0150055A0250065A0350075A92C05A
:104A920000F093C001F0000E000193BFFF0E026E02
:104AA200036EA5EC0AF00B0E046E00C0F7F001C015
:104AB200F8F002C0F9F003C0FAF0045007E0FA334C
:104AC200F933F833F733FA9FFF0FF8D7040E006E6D
:104AD2006DC00CF06EC00DF06FC00EF070C00FF024
:104AE200005007E00F320E320D320C320F9EFF0FD4
:104AF200F8D790C000F091C001F0000E026E036E74
:104B02000CC008F00DC009F00EC00AF00FC00BF087
:104B12000050085E0150095A02500A5A03500B5ABB
:104B220090C004F091C005F0000E066E076E0CC036
:104B320000F00DC001F00EC002F00FC003F00450EF
:104B4200005E0550015A0650025A0750035A08C027
:104B520004F009C005F00AC006F00BC007F0A5EC8E
:104B62000AF00C0E086E00C004F001C005F002C08D
:104B720006F003C007F0085007E00732063205329C
:104B82000432079EFF0FF8D7000175C000F076C00F
:104B920001F0000E76BFFF0E026E036EA5EC0AF066
:104BA2000E0E086E00C004F001C005F002C006F04F
:104BB20003C007F0085007E007320632053204321C
:104BC200079EFF0FF8D700010450F725006E05502D
:104BD200F821016E0650F921026E0750FA21036E88
:104BE20000C065F001C066F002C067F003C068F063
:104BF200050E046E000E056E066E076EA5EC0AF039
:104C0200800E0024056E000E0120066E000E0220AA
:104C1200076E000E0320086E06C000F007C001F008
:0E4C220008C002F0000E08BEFF0E036E120066
:104C30000050086E0150006E0250016E0350026E6B
:104C4000036A0B6A0C6A9E0E036E0A6A02AE35EFA7
:104C500026F0081E001E011E021E082AD8B4002AD3
:104C6000D8B4012AD8B4022A0A8E020E0C6E58EC6F
:044C700000F012003E
:104C7400360E0001836F000E846F2A0E856F010EBD
:104C8400866FFF0E876FFF0E886F000E896F000E10
:104C94008A6FFF0E7F6FFF0E806F000E816F000E14
:104CA400826FFF0E776FFF0E786F000E796F000E24
:104CB4007A6FAC8A900EAB6E948E949C9EAA03D0AD
:084CC400AECF00F0FBD7120097
:104CCC007E0E5C6E000E5D6E000E5E6E000E5F6EF4
:104CDC00900E0001696F040E6A6F000E6B6F000E70
:104CEC006C6F920E9D6F020E9E6F000E9F6F000EEA
:104CFC00A06FEC0E996F020E9A6F240E9B6F010E33
:104D0C009C6FB00E956F030E966F240E976F010E6D
:104D1C00986FE80E8B6F020E8C6F000E8D6F000E6D
:104D2C008E6F949894968B988B9694889486C79E45
:084D3C00C79C380EC66E120080
:0C4D4400D00E01011F6FC6EC05F012003C
:104D5000E00E01011F6FB60E206F26EC09F0120065
:104D6000890E01011F6FC6EC05F000C094F0880E9B
:104D700001011F6FC6EC05F000C08FF094C090F0E9
:104D8000000E0001916F90C091F0906B0050902741
:104D9000000E91238B0E01011F6FC6EC05F000C0C1
:104DA00094F08A0E01011F6FC6EC05F000C08FF071
:104DB00094C092F0000E0001936F92C093F0926B3A
:104DC00000509227000E93238D0E01011F6FC6EC39
:104DD00005F000C094F08C0E01011F6FC6EC05F0C9
:104DE00000C08FF094C075F0000E0001766F75C0A2
:104DF00076F0756B00507527000E76238F0E01013B
:104E00001F6FC6EC05F000C094F08E0E01011F6FFD
:104E1000C6EC05F000C08FF094C053F0000E546E45
:104E200053C054F0536A00505326000E5422910E82
:104E300001011F6FC6EC05F000C094F0900E010157
:104E40001F6FC6EC05F000C08FF094C051F0000E4B
:104E5000526E51C052F0516A00505126000E52223B
:104E6000930E01011F6FC6EC05F000C094F0920E86
:104E700001011F6FC6EC05F000C08FF094C04FF029
:104E8000000E506E4FC050F04F6A00504F26000E7B
:104E90005022950E01011F6FC6EC05F000C094F082
:104EA000940E01011F6FC6EC05F000C08FF094C096
:104EB00059F0000E5A6E59C05AF0596A00505926DE
:104EC000000E5A22970E01011F6FC6EC05F000C0BC
:104ED00094F0960E01011F6FC6EC05F000C08FF034
:104EE00094C057F0000E586E57C058F0576A0050E3
:104EF0005726000E5822990E01011F6FC6EC05F0CF
:104F000000C094F0980E01011F6FC6EC05F000C0C0
:104F10008FF094C055F0000E566E55C056F0556A8D
:104F200000505526000E56229B0E01011F6FC6EC45
:104F300005F000C094F09A0E01011F6FC6EC05F059
:104F400000C08FF094C04DF0000E4E6E4DC04EF07C
:104F50004D6A00504D26000E4E229D0E01011F6F1E
:104F6000C6EC05F000C094F09C0E01011F6FC6EC6A
:104F700005F000C08FF094C048F0000E496E48C0A4
:104F800049F0486A00504826000E49229F0E010150
:104F90001F6FC6EC05F000C094F09E0E01011F6F5C
:104FA000C6EC05F000C08FF094C046F0000E476ECE
:104FB00046C047F0466A00504626000E4722A10E22
:104FC00001011F6FC6EC05F000C08FF000C045F076
:104FD000E20E01011F6FC6EC05F000C094F0E10E77
:104FE00001011F6FC6EC05F000C08FF000C04CF04F
:104FF000E30E01011F6FC6EC05F000C08FF000C08A
:105000004BF0E40E01011F6FC6EC05F000C094F0F8
:10501000E50E01011F6FC6EC05F000C08FF094C0D3
:105020004AF04A364A904A364A904A364A904A36B8
:105030004A900F0E001600504A12E60E01011F6F33
:10504000C6EC05F000C094F0E50E01011F6FC6EC40
:1050500005F000C08FF094C05BF05B365B905B3670
:105060005B905B365B905B365B9000C001F0013279
:10507000019E0132019E0132019E0132019E0150CA
:105080005B12E70E01011F6FC6EC05F000C08FF048
:0650900000C060F01200F8
:105096000F01386B396B3A6B3B6B3C6B926A936AC8
:1050A600946A956A966A896A8A6A8B6A8C6A8D6A34
:1050B6001A0E0C6EF80E0D6E0D2EFED70C2EFCD7AA
:1050C6000000C80EC86EFFDD020E0B6E860E0C6E5B
:1050D600990E0D6E0D2EFED70C2EFCD70B2EFAD781
:1050E600B886B06ACF0EAF6EAC84C1DD020E0B6E11
:1050F600860E0C6E990E0D6E0D2EFED70C2EFCD75D
:065106000B2EFAD7120087
:10510C00EE0E0001F46F000EF56FE9C0F7F0EAC087
:10511C00F8F0EBC0F9F0ECC0FAF0EDC0FBF0F40ED7
:10512C00FC6F000EFD6FF9EC0EF000C0F2F001C048
:10513C00F3F000500001E925E16E0150EA21E26E26
:0C514C00E66AF2C000F0F3C001F01200AF
:105158000900F5CFE6FF0006FBE10106F9E11200C0
:10516800E9EC22F038EC09F0000E046E000E056E32
:0E517800000E066E890E076E4BEC09F0120059
:10518600D8EC1FF052DD000E046E000E056E480EC0
:0C519600066E850E076E4BEC09F012004F
:1051A200F40E01011F6FC6EC05F0FC0E00140101A4
:1051B200206F0001E95101012013F40E1F6F26EC4C
:0451C20009F01200DE
:1051C600BEDD00C0E9F00050600A20E1BEDD040E3D
:1051D6000B6E0C0E0C6E330E0D6E0D2EFED70C2EB6
:1051E600FCD70B2EFAD700000000B7DD010E000138
:1051F600F76FA8EC1FF0020E0001F76FC2EC1FF06C
:10520600010E0001F76F7BEC1FF023D0E9C08AFF87
:105216008C1E1E0E0001F76F000EF86F8DEC1FF04E
:105226000D0E01012A6F1BEC00F00A0E01012A6F18
:105236001BEC00F0060E0B6E130E0C6EAD0E0D6E13
:105246000D2EFED70C2EFCD70B2EFAD70000000031
:04525600DDD712008E
:10525A0011EC25F0E8DC000E046E000E056E480E17
:0C526A00066E850E076E4BEC09F012007A
:1052760048EC02F0EC0E0101246FD8EC01F0F70EB9
:105286000101246FD8EC01F049EC01F0ED0E0101AB
:10529600246FD8EC01F00001F36BF46B800E006E06
:1052A600800EF419005C02E1F351060815E3E90EDD
:1052B600F325F56F000EF421F66F010E0101246F40
:1052C60076EC01F0F5C0E1FFF6C0E2FF00C0E6FFB4
:1052D6000001F34BF42BE2D7010EF325006E000E0E
:1052E600F421016EE90E0024F56F000E0120F66F21
:1052F6000101246B76EC01F0F5C0E1FFF6C0E2FF98
:1053060000C0E6FFE9C061F0000E0001626F636F46
:10531600646F0C0E006E005007E0613761916237D2
:1053260063376437FF0FF8D7EAC005F0000E066E44
:10533600076E086E040E046E05C000F006C001F08C
:1053460007C002F008C003F0045007E000360090E2
:10535600013602360336FF0FF8D7005061130150AD
:1053660062130250631303506413EBC005F0000E82
:10537600066E076E086E040E046E05C000F006C0C9
:1053860001F007C002F008C003F0045007E0033242
:10539600023201320032039EFF0FF8D7005061132C
:1053A600015062130250631303506413ECC06DF096
:1053B600000E6E6F6F6F706F0C0E006E005007E080
:1053C6006D376D916E376F377037FF0FF8D7EDC0B9
:1053D60005F0000E066E076E086E040E046E05C01C
:1053E60000F006C001F007C002F008C003F0045048
:1053F60007E000360090013602360336FF0FF8D775
:1054060000506D1301506E1302506F13035070134A
:10541600EEC005F0000E066E076E086E040E046EF2
:1054260005C000F006C001F007C002F008C003F096
:10543600045007E00332023201320032039EFF0FAE
:10544600F8D700506D1301506E1302506F130350BE
:105456007013EFC071F0000E726F736F746F73C0CC
:1054660074F072C073F071C072F0716BF0C000F02E
:10547600000E016E026E036E00507113015072131E
:0A5486000250731303507413120058
:10549000ACEC2BF000DE97DE010E0001E96F81DE3F
:1054A000EADEDBDE00C0DDF001C0DEF002C0DFF0CE
:1054B00003C0E0F068DE00C0E1F001C0E2F002C02D
:1054C000E3F003C0E4F050DE00C0E5F001C0E6F018
:1054D00002C0E7F003C0E8F0A10E0001E96F000E82
:1054E000EA6F480EEB6F570EEC6F000EED6FDDC0EC
:1054F000EEF0DEC0EFF0DFC0F0F0E0C0F1F006DE6D
:10550000190EF76F000EF86F8DEC1FF0A10EF76FFC
:10551000000EF86F8DEC1FF0540E01012A6F1BEC8A
:1055200000F00D0E01012A6F1BEC00F00A0E0101C4
:105530002A6F1BEC00F0B50E0001E96F000EEA6F58
:105540004D0EEB6F570EEC6F000EED6FE1C0EEF0FD
:10555000E2C0EFF0E3C0F0F0E4C0F1F0D7DD150EEB
:10556000F76F000EF86F8DEC1FF0B50EF76F000EA1
:10557000F86F8DEC1FF0380EF76F000EF86F8DECA2
:105580001FF00D0E01012A6F1BEC00F00A0E010145
:105590002A6F1BEC00F0C90E0001E96F000EEA6FE4
:1055A000520EEB6F570EEC6F000EED6FE5C0EEF094
:1055B000E6C0EFF0E7C0F0F0E8C0F1F0A7DD330E91
:1055C000F76F000EF86F8DEC1FF0C90EF76F000E2D
:1055D000F86F8DEC1FF0310EF76F000EF86F8DEC49
:1055E0001FF00D0E01012A6F1BEC00F00A0E0101E5
:1055F0002A6F1BEC00F0060E0B6E130E0C6EAD0E38
:105600000D6E0D2EFED70C2EFCD70B2EFAD70000F8
:06561000000042D7FFD7A5
:1057580010EE15F0300E006E010E016EAE0EF66EF4
:0E576800560EF76E000EF86EACEC28F0120034
:105616000000007FCDCC4C7B0AD723786F12037530
:1056260017B75171ACC5276EBD37066B95BF566768
:1056360077CC2B645F700961FFE65B5D08E53C3C57
:045646006042221B81
:10564A000000007F000020820000488500007A8860
:10565A0000401C8C0050438F002474928096189648
:10566A0020BC3E99286B6E9CF90215A0EC782DC1DE
:04567A00CAF249E245
:10567E0001000000080000004000000000020000D1
:10568E000010000000800000000004000000200058
:10569E0000000001000000080000004000000000B3
:0456AE003030300068
:0556B200303030300033
:1056B7002057726F6E672063686970204944212103
:0356C7002120009F
:0256CA00480096
:0556CC00303030300019
:0256D100500087
:0456D30000000000D3
:0756D700286E756C6C2900C0
:1056DE00010000000A00000064000000E803000062
:1056EE0010270000A086010040420F00809698000F
:0856FE0000E1F50500CA9A3B2A
:105706000100000010000000000100000010000071
:105716000000010000001000000000010000001061
:105726003031323334353637383961626364656611
:015736000072
:1057370030313233343536373839414243444546C0
:015747000061
:05574800252E32660071
:05574D00252E3266006C
:05575200252E32660067
:020000040030CA
:0D000100231F3CFFBF81FF0FC00FE00F4029
:00000001FF
